:100000000C9463000C948B000C948B000C94D20322
:100010000C94D2030C94D2030C948B000C948B00A0
:100020000C948B000C948B000C948B000C948B0024
:100030000C948B000C948B000C948B000C948B0014
:100040000C9430030C948B000C94A0030C947A0352
:100050000C948B000C948B000C948B000C948B00F4
:100060000C948B000C948B000000000024002700EF
:100070002A0000000008000201000003040700003D
:1000800000000000000000000000230026002900FE
:1000900000000000250028002B00040404040404D0
:1000A0000404020202020202030303030303010227
:1000B00004081020408001020408102001020408F6
:1000C00010204A04BA0611241FBECFEFD8E0DEBFCD
:1000D000CDBF11E0A0E0B1E0E2EDFDE002C005908F
:1000E0000D92A432B107D9F722E0A4E2B1E001C039
:1000F0001D92AD32B207E1F710E0C2E6D0E004C0D5
:100100002197FE010E94D606C136D107C9F70E9489
:10011000F5040C94DC060C940000833081F028F484
:10012000813099F08230A9F008958730A9F08830A5
:10013000C9F08430B1F4809180008F7D03C080913C
:1001400080008F7780938000089584B58F7784BD79
:10015000089584B58F7DFBCF8091B0008F77809319
:10016000B00008958091B0008F7DF9CF1F93CF9399
:10017000DF93282F30E0F901EE58FF4F8491F90109
:10018000E255FF4FD491F901E656FF4FC491CC23BD
:10019000A9F0162F81110E948D00EC2FF0E0EE0FD8
:1001A000FF1FE057FF4FA591B4918FB7F894EC91E2
:1001B000111108C0D095DE23DC938FBFDF91CF9162
:1001C0001F910895DE2BF8CFCF93DF9390E0FC01D1
:1001D000E255FF4F249186569F4FFC01849188235E
:1001E000D1F090E0880F991FFC01E859FF4FA591CD
:1001F000B491FC01E057FF4FC591D49161110EC03D
:100200009FB7F8948C91E22FE0958E238C932881F0
:10021000E223E8839FBFDF91CF9108958FB7F894D1
:10022000EC91E22BEC938FBFF6CF3FB7F89480911F
:100230006D0190916E01A0916F01B091700126B592
:10024000A89B05C02F3F19F00196A11DB11D3FBF0E
:10025000BA2FA92F982F8827BC01CD01620F711DDD
:10026000811D911D42E0660F771F881F991F4A95D7
:10027000D1F70895AF92BF92CF92DF92EF92FF92A3
:100280000F931F93CF93DF936C017B018B01040FBE
:10029000151FEB015E01AE18BF08C017D10759F05A
:1002A0006991D601ED91FC910190F081E02DC6019C
:1002B0000995892B79F7C501DF91CF911F910F9196
:1002C000FF90EF90DF90CF90BF90AF900895CF93C5
:1002D000DF93CDB7DEB72A970FB6F894DEBF0FBE17
:1002E000CDBF9EE799839FEF9A8396E09B838C8393
:1002F0001D821E826F83FE0132969E01285F3F4F52
:1003000090E080E04191840F911DE217F307D1F74F
:10031000919581959109988789878FEE8A874AE020
:1003200050E0BE016F5F7F4F8EE092E00E943A0185
:100330002A960FB6F894DEBF0FBECDBFDF91CF91E6
:100340000895FC01538D448D252F30E0842F90E0DB
:10035000821B930B541710F0CF96089501970895C0
:10036000FC01918D828D981761F0A28DAE0FBF2F89
:10037000B11D5D968C91928D9F5F9F73928F90E0DF
:1003800008958FEF9FEF0895FC01918D828D98174E
:1003900031F0828DE80FF11D858D90E008958FEF8B
:1003A0009FEF0895FC01918D228D892F90E0805C54
:1003B0009F4F821B91098F739927089581E791E0E0
:1003C0000E94D20121E0892B09F420E0822F0895B8
:1003D00080E090E0892B29F00E94DE0181110C94CD
:1003E00000000895FC01A48DA80FB92FB11DA35AD8
:1003F000BF4F2C91848D90E001968F739927848F45
:10040000A689B7892C93A089B1898C918370806467
:100410008C93938D848D981306C00288F389E02D08
:1004200080818F7D80830895EF92FF920F931F93B9
:10043000CF93DF93EC0181E0888F9B8D8C8D981397
:100440001AC0E889F989808185FF15C09FB7F894A3
:10045000EE89FF896083E889F989808183708064EF
:1004600080839FBF81E090E0DF91CF911F910F913A
:10047000FF90EF900895F62E0B8D10E00F5F1F4F49
:100480000F731127E02E8C8D8E110CC00FB607FC58
:10049000FACFE889F989808185FFF5CFCE010E94E6
:1004A000F201F1CFEB8DEC0FFD2FF11DE35AFF4F61
:1004B000F0829FB7F8940B8FEA89FB898081806274
:1004C000CFCFCF93DF93EC01888D8823B9F0AA8931
:1004D000BB89E889F9898C9185FD03C0808186FDFF
:1004E0000DC00FB607FCF7CF8C9185FFF2CF80814E
:1004F00085FFEDCFCE010E94F201E9CFDF91CF91D0
:10050000089520916601309167012817390771F429
:100510009091640180916501981741F0E091640128
:10052000F0E0EC5DFE4F808190E008958FEF9FEF4B
:1005300008950895EF92FF920F931F93CF93DF9347
:10054000DC015C96ED90FC905D97E114F10479F488
:1005500081E090E013969C938E93129790E080E058
:10056000DF91CF911F910F91FF90EF9008955196D9
:10057000ED91FC91529750968C915097982F9095B1
:100580000FB75E962C915E97122F127021FD609529
:10059000F8942081112319F1282B2083E70121975A
:1005A000F1F728E0462F50E0308160FF1AC0382B69
:1005B0003083E7012197F1F7BA01759567952150CE
:1005C00089F7112381F08081892380830FBF5C9696
:1005D0008D919C910197F1F781E090E0C1CF2923A3
:1005E000DCCF3923E5CF9081892BEFCF20916601B5
:1005F000309167012817390761F4809165012091D6
:10060000640190E0805C9F4F821B91098F73992752
:10061000089590E080E0089520916601309167018F
:1006200028173907B9F490916401809165019817F2
:1006300089F0E0916401F0E0EC5DFE4F8081209153
:10064000640130E02F5F3F4F2F7333272093640105
:1006500090E008958FEF9FEF089590E080E0089577
:100660001F920F920FB60F9211242F933F938F93E7
:100670009F93AF93BF938091690190916A01A0917C
:100680006B01B0916C013091680123E0230F2D378D
:1006900058F50196A11DB11D209368018093690151
:1006A00090936A01A0936B01B0936C0180916D01EE
:1006B00090916E01A0916F01B09170010196A11D02
:1006C000B11D80936D0190936E01A0936F01B09363
:1006D0007001BF91AF919F918F913F912F910F909A
:1006E0000FBE0F901F90189526E8230F0296A11DAC
:1006F000B11DD2CF1F920F920FB60F9211242F93DC
:100700003F934F935F936F937F938F939F93AF9399
:10071000BF93EF93FF9381E791E00E94F201FF9175
:10072000EF91BF91AF919F918F917F916F915F9169
:100730004F913F912F910F900FBE0F901F901895E2
:100740001F920F920FB60F9211242F938F939F93A6
:10075000EF93FF93E0918101F09182018081E0911C
:100760008701F091880182FD1BC0908180918A01F0
:100770008F5F8F7320918B01821741F0E0918A0186
:10078000F0E0EF58FE4F958F80938A01FF91EF9133
:100790009F918F912F910F900FBE0F901F901895E2
:1007A0008081F4CF1F920F920FB60F9211242F93D6
:1007B0003F934F935F936F937F938F939F93AF93E9
:1007C000BF93EF93FF93E0916601F091670130973B
:1007D00049F0A685B7858585968D91FF14C09C91BB
:1007E0008923A1F4FF91EF91BF91AF919F918F91D8
:1007F0007F916F915F914F913F912F910F900FBE1D
:100800000F901F9018959C91892361F7A389B48953
:100810009C918589809589238C93868997890197F6
:10082000F1F7608D718DA685B785558538E020E09C
:10083000CB010197F1F7822F90E095958795282FAE
:100840004C91452309F02068315091F7868D81FD48
:1008500020958091650190E001968F7399273091E2
:100860006401381799F0A0916501B0E0AC5DBE4F0E
:100870002C9380936501828D938D0197F1F7A38965
:10088000B4898C919589892B8C93ACCF868D8160AE
:10089000868FF1CF109274011092730188EE93E06D
:1008A000A0E0B0E08093750190937601A09377016A
:1008B000B093780124E031E030937201209371010C
:1008C00025EC30E030937E0120937D0124EC30E074
:1008D0003093800120937F0120EC30E0309382013F
:1008E0002093810121EC30E0309384012093830137
:1008F00022EC30E0309386012093850126EC30E035
:10090000309388012093870110928A0110928B0105
:1009100010928C0110928D0110921102109210020F
:100920008093120290931302A0931402B0931502C5
:1009300086E191E090930F0280930E0210922502BF
:10094000109224021092270210922602109229027D
:100950001092280210922B0210922A0260912C020F
:100960006E7F6D7F60932C026695617081E06827D1
:100970008BE00E94B60061E08BE00E94E400E9EBAE
:10098000F0E0E491E0931E02E5EAF0E0E491F0E0AB
:10099000EE0FFF1FE057FF4F859194919093200237
:1009A00080931F0260E08AE00E94E40080912C02A4
:1009B00081FD04C061E08AE00E94B6008AE0809375
:1009C0001A02E8EBF0E0E491E0931B02E4EAF0E0C5
:1009D000E491F0E0EE0FFF1FEA57FF4F85919491ED
:1009E00090931D0280931C020895CF93DF93CDB79F
:1009F000DEB7A1970FB6F894DEBF0FBECDBF7894D7
:100A000084B5826084BD84B5816084BD85B5826013
:100A100085BD85B5816085BD80916E0081608093C4
:100A20006E0010928100809181008260809381002D
:100A3000809181008160809381008091800081603D
:100A4000809380008091B10084608093B100809198
:100A5000B00081608093B00080917A0084608093C0
:100A60007A0080917A00826080937A0080917A0087
:100A7000816080937A0080917A00806880937A0008
:100A80001092C100E0918101F091820182E08083A7
:100A9000E0917D01F0917E011082E0917F01F09163
:100AA000800180E1808310928901E0918501F091BD
:100AB000860186E08083E0918301F091840180814A
:100AC00080618083E0918301F0918401808188605E
:100AD0008083E0918301F09184018081806880832C
:100AE000E0918301F091840180818F7D8083109259
:100AF00029021092280210922702109226021092C8
:100B00002502109224028DE991E090932B028093AC
:100B10002A0290911A02963108F047C02DEB30E07E
:100B200030932502209324022BE931E030932702F1
:100B3000209326022CE231E03093290220932802F0
:100B40002091680084E0983048F031E09E3008F44D
:100B500030E081E001C0880F3A95EAF7822B80935C
:100B600068002DE630E0983050F02BE630E09E3003
:100B700030F02CE630E0963110F030E020E0309399
:100B8000220220932102292F30E0983008F0D7C0AC
:100B900081E001C0880F9A95EAF780932302809143
:100BA0002A0290912B020197F1F7809128029091EF
:100BB0002902892B49F1E0916601F091670122E059
:100BC000EE30F20709F1309739F0A389B4899C918E
:100BD0008589809589238C9380912C028E7F8093C8
:100BE0002C0210926501109264018EE092E09093C5
:100BF000670180936601E0912102F09122028081D9
:100C000090912302892B808360E082E00E94E400BF
:100C100061E08DE00E94E4000E9415014B015C013F
:100C200074EFC72EDD24D394E12CF12C0E94150122
:100C3000681979098A099B09683E73408105910505
:100C4000A8F381E0C81AD108E108F108E8EE8E0E99
:100C5000E3E09E1EA11CB11CC114D104E104F10407
:100C600029F764E186E00E94670161E083E00E9469
:100C7000670104E710E040EBE42E40E0F42E5CE96D
:100C8000C52E50E0D52E60E0A62E60E0B62EF8010D
:100C90008491F7019490F601849061E0882081F0BE
:100CA00081110E948D00E82DF0E0EE0FFF1FEA5742
:100CB000FF4FA591B4918C91982261E009F060E01A
:100CC0008DE00E94B6008EE092E00E94F602892B31
:100CD00009F444C08EE092E00E940C03092E000C3F
:100CE000AA0BBB0B19A2FE01B196AC01BD014F705E
:100CF00055276627772724E0B695A795979587957A
:100D00002A95D1F74A3044F5405D42930097A105FA
:100D1000B10559F7309769F0DF010D900020E9F730
:100D20001197AD014E1B5F0BBF0181E791E00E945F
:100D30003A0160E281E791E00E941402C4CF9E3044
:100D400040F42850310981E001C0880F2A95EAF764
:100D500024CF2E503109F7CF495CD7CFA114B1046D
:100D600009F495CF0E94DE01882309F490CF0E94F8
:100D700000008DCF86E191E090930F0280930E02E8
:100D800080916601909167018E50924071F4E091DC
:100D90002102F09122029081809123028095892383
:100DA000808310926701109266010895EE0FFF1F75
:100DB0000590F491E02D099410E0C2E6D0E004C063
:100DC000FE010E94D6062196C336D107C9F7F894D2
:020DD000FFCF53
:100DD2000000000014023A01A1016102D201B00137
:100DE200C401000000009A023A012D039902F602A2
:040DF2000C0381026B
:00000001FF
